{
  "_format": "hh-sol-artifact-1",
  "contractName": "TodoList",
  "sourceName": "contracts/TodoList.sol",
  "abi": [
    {
      "anonymous": false,
      "inputs": [
        {
          "indexed": true,
          "internalType": "address",
          "name": "user",
          "type": "address"
        },
        {
          "indexed": false,
          "internalType": "uint256",
          "name": "taskId",
          "type": "uint256"
        },
        {
          "indexed": false,
          "internalType": "bool",
          "name": "newStatus",
          "type": "bool"
        }
      ],
      "name": "TaskCompletedToggled",
      "type": "event"
    },
    {
      "anonymous": false,
      "inputs": [
        {
          "indexed": true,
          "internalType": "address",
          "name": "creator",
          "type": "address"
        },
        {
          "indexed": false,
          "internalType": "uint256",
          "name": "taskId",
          "type": "uint256"
        },
        {
          "indexed": false,
          "internalType": "string",
          "name": "content",
          "type": "string"
        }
      ],
      "name": "TaskCreated",
      "type": "event"
    },
    {
      "inputs": [
        {
          "internalType": "string",
          "name": "_content",
          "type": "string"
        }
      ],
      "name": "createTask",
      "outputs": [],
      "stateMutability": "nonpayable",
      "type": "function"
    },
    {
      "inputs": [],
      "name": "getMyTasks",
      "outputs": [
        {
          "components": [
            {
              "internalType": "uint256",
              "name": "id",
              "type": "uint256"
            },
            {
              "internalType": "string",
              "name": "content",
              "type": "string"
            },
            {
              "internalType": "bool",
              "name": "completed",
              "type": "bool"
            }
          ],
          "internalType": "struct TodoList.Task[]",
          "name": "",
          "type": "tuple[]"
        }
      ],
      "stateMutability": "view",
      "type": "function"
    },
    {
      "inputs": [
        {
          "internalType": "address",
          "name": "",
          "type": "address"
        }
      ],
      "name": "taskCount",
      "outputs": [
        {
          "internalType": "uint256",
          "name": "",
          "type": "uint256"
        }
      ],
      "stateMutability": "view",
      "type": "function"
    },
    {
      "inputs": [
        {
          "internalType": "uint256",
          "name": "_taskId",
          "type": "uint256"
        }
      ],
      "name": "toggleCompleted",
      "outputs": [],
      "stateMutability": "nonpayable",
      "type": "function"
    },
    {
      "inputs": [
        {
          "internalType": "address",
          "name": "",
          "type": "address"
        },
        {
          "internalType": "uint256",
          "name": "",
          "type": "uint256"
        }
      ],
      "name": "userTasks",
      "outputs": [
        {
          "internalType": "uint256",
          "name": "id",
          "type": "uint256"
        },
        {
          "internalType": "string",
          "name": "content",
          "type": "string"
        },
        {
          "internalType": "bool",
          "name": "completed",
          "type": "bool"
        }
      ],
      "stateMutability": "view",
      "type": "function"
    }
  ],
  "bytecode": "0x6080604052348015600f57600080fd5b506109308061001f6000396000f3fe608060405234801561001057600080fd5b50600436106100575760003560e01c8063082d1abb1461005c578063111002aa1461008f578063455f5024146100a457806366873a55146100b75780636e13f818146100d9575b600080fd5b61007c61006a366004610556565b60016020526000908152604090205481565b6040519081526020015b60405180910390f35b6100a261009d366004610578565b6100ee565b005b6100a26100b23660046105ec565b61025c565b6100ca6100c5366004610605565b610352565b60405161008693929190610675565b6100e1610424565b60405161008691906106a0565b806101405760405162461bcd60e51b815260206004820152601860248201527f436f6e74656e742063616e6e6f7420626520656d7074792e000000000000000060448201526064015b60405180910390fd5b336000908152600160209081526040808320548383529281902081516060810183528481528251601f870185900485028101850190935285835290929091828201918790879081908401838280828437600092018290525093855250505060209182018190528354600181810186559482529082902083516003909202019081559082015191929091908201906101d790826107c8565b50604091820151600291909101805460ff1916911515919091179055336000908152600160205290812080549161020d83610887565b9190505550336001600160a01b03167fa211005f5319202ee7ab6815fc340564635fb1eee9bc5a55aa10048c5b471dc482858560405161024f939291906108ae565b60405180910390a2505050565b3360009081526001602052604090205481106102ba5760405162461bcd60e51b815260206004820152601760248201527f5461736b20494420646f6573206e6f742065786973742e0000000000000000006044820152606401610137565b3360009081526020819052604081208054839081106102db576102db6108e4565b600091825260209091206002600390920201908101805460ff19811660ff9182161590811790925560405192935033927f5e90664531d04f9a0cb1e675261cf03babb07ff21a679c6d4450addf17bc2b8e926103469287929116909182521515602082015260400190565b60405180910390a25050565b6000602052816000526040600020818154811061036e57600080fd5b9060005260206000209060030201600091509150508060000154908060010180546103989061073f565b80601f01602080910402602001604051908101604052809291908181526020018280546103c49061073f565b80156104115780601f106103e657610100808354040283529160200191610411565b820191906000526020600020905b8154815290600101906020018083116103f457829003601f168201915b5050506002909301549192505060ff1683565b33600090815260208181526040808320805482518185028101850190935280835260609492939192909184015b8282101561053157838290600052602060002090600302016040518060600160405290816000820154815260200160018201805461048e9061073f565b80601f01602080910402602001604051908101604052809291908181526020018280546104ba9061073f565b80156105075780601f106104dc57610100808354040283529160200191610507565b820191906000526020600020905b8154815290600101906020018083116104ea57829003601f168201915b50505091835250506002919091015460ff1615156020918201529082526001929092019101610451565b50505050905090565b80356001600160a01b038116811461055157600080fd5b919050565b60006020828403121561056857600080fd5b6105718261053a565b9392505050565b6000806020838503121561058b57600080fd5b823567ffffffffffffffff8111156105a257600080fd5b8301601f810185136105b357600080fd5b803567ffffffffffffffff8111156105ca57600080fd5b8560208284010111156105dc57600080fd5b6020919091019590945092505050565b6000602082840312156105fe57600080fd5b5035919050565b6000806040838503121561061857600080fd5b6106218361053a565b946020939093013593505050565b6000815180845260005b8181101561065557602081850181015186830182015201610639565b506000602082860101526020601f19601f83011685010191505092915050565b83815260606020820152600061068e606083018561062f565b90508215156040830152949350505050565b6000602082016020835280845180835260408501915060408160051b86010192506020860160005b8281101561071d57603f198786030184528151805186526020810151606060208801526106f8606088018261062f565b60409283015115159790920196909652945060209384019391909101906001016106c8565b50929695505050505050565b634e487b7160e01b600052604160045260246000fd5b600181811c9082168061075357607f821691505b60208210810361077357634e487b7160e01b600052602260045260246000fd5b50919050565b601f8211156107c357806000526020600020601f840160051c810160208510156107a05750805b601f840160051c820191505b818110156107c057600081556001016107ac565b50505b505050565b815167ffffffffffffffff8111156107e2576107e2610729565b6107f6816107f0845461073f565b84610779565b6020601f82116001811461082a57600083156108125750848201515b600019600385901b1c1916600184901b1784556107c0565b600084815260208120601f198516915b8281101561085a578785015182556020948501946001909201910161083a565b50848210156108785786840151600019600387901b60f8161c191681555b50505050600190811b01905550565b6000600182016108a757634e487b7160e01b600052601160045260246000fd5b5060010190565b83815260406020820152816040820152818360608301376000818301606090810191909152601f909201601f1916010192915050565b634e487b7160e01b600052603260045260246000fdfea2646970667358221220fb9280794376629f595e3623b299ae729e0746e8a532f96118dc391d033b63b564736f6c634300081c0033",
  "linkReferences": {},
  "deployedLinkReferences": {}
}